:0A268C0042030300004202FF0000B9
:092AC600900301E0FEA3E0FF22F1
:101C4C007B017A0279E1E4FDFC1228FB7B017A022C
:101C5C0079E57D0A7C001228FB122AE7122549122D
:101C6C00285F122643122A9F900273EEF0A3EFF026
:101C7C00D39400EE940040607F007E08122AE0901E
:101C8C0001B5E0B50621A3E0B5071C7F01120003E6
:101C9C00D3900274E09400900273E094005003021D
:101CAC001D74121621802B7F067E08122AE09001EB
:101CBC00B5E06E7003A3E06F6003021D74121DC2C9
:101CCC00D3900274E09400900273E09400500302ED
:101CDC001D74122A80021D747B017A0279E112268E
:101CEC00D3EF4E7003021D747B017A0279E1122A44
:101CFC0091E49002DFF0A3F09002DFE0FEA3E0FF9E
:101D0C00C3940AEE6480948050457C007D1E1214AE
:101D1C00D0744B2FF974003EFA9001777401F0A344
:101D2C00EAF0A3E9F07F02120003D3900274E0946E
:101D3C0000900273E094004006121621122A809043
:101D4C0002E0E004F070B19002DFE004F080A97BC7
:101D5C00017A0279E51226D3EF4E600C7B017A02F0
:101D6C0079E5122A911224EB900303E475F0011229
:101D7C0014E2AFF0FEBE0518BFDC15900302E004C0
:101D8C00F07006900301E004F0E4900303F0A3F07C
:101D9C009002FFE475F0011214E2FEE5F064DC70D1
:101DAC0003EE64056003021C71122AEAE49002FF40
:061DBC00F0A3F0021C710F
:1028FB009002E9EBF0A3EAF0A3E9F0AF0590000238
:10290B00EC8FF01215C8122AC69002E9E0FBA3E087
:0A291B00FAA3E0F9EE8FF00215A90F
:0E2A9100900002121539FFE5F08FF00215716A
:1029D500900309EBF0A3EAF0A3E9F0122AC69003ED
:0F29E50009E0FBA3E0FAA3E0F9EE8FF00215A9D9
:1026D3009002E9EBF0A3EAF0A3E9F0122AC6900214
:1026E300E9E0FBA3E0FAA3E0F912150EFDC3EF9DA9
:1026F300FFEE95F0FE900002121539FDC3EF9DE544
:10270300F06480F8EE6480987E0040047F018002CC
:032713007F002222
:102696004602D9FFFFFFFFFFFF440276FFFFFFFF61
:10285F00E49002D3F09002D3E0FFC3940850279086
:10286F000004C083C0827D00EF75F00BA4247AF9B9
:10287F00740235F0FA7B01D007D0061215F59002DD
:07288F00D3E004F080CF222A
:1024EB009002D4E004F0E49002D3F09002D3E0FF2A
:1024FB00C394085048EF75F00BA4247AF974023595
:10250B00F0FA7B01900002121539FFAEF012150E96
:10251B00FDE5F04EFEED4F4E601B90000A121405C8
:10252B00FF9002D4E0C39FC3947840097E007F04E0
:0D253B007D001215F59002D3E004F080AE93
:012548002270
:0B1A79009002E9EBF0A3EAF0A3E9F013
:101A8400E49002D3F09002D3E0FFC3940840030231
:101A94001B21EF75F00BA4247AF9740235F0FA7B5C
:101AA400019002EFEBF0A3EAF0A3E9F012150E4562
:101AB400F060619002EFE0FBA3E0FAA3E0F990008C
:101AC4000212153945F0604C12150EFFAEF090026B
:101AD400E9E0FBA3E0FAA3E0F912150E6F7003E549
:101AE400F06E70309002EFE0FBA3E0FAA3E0F9900F
:101AF4000002121539FFAEF09002E9E0FBA3E0FA10
:101B0400A3E0F9900002121539B50708E5F0B5060F
:101B140003021C0E9002D3E004F0021A89E490023E
:101B2400D3F09002D3E0FFC39408503EEF75F00B5E
:101B3400A4247AF9740235F0FA7B019002EFEBF0F9
:101B4400A3EAF0A3E9F012150E45F070159002EF28
:101B5400E0FBA3E0FAA3E0F990000212153945F086
:101B640060089002D3E004F080B89002D3E06408E7
:101B74007077900275F09002D2F0A3F09002D3E057
:101B8400FFC394085044EF75F00BA4247AF974024F
:101B940035F0FA7B019002EFEBF0A3EAF0A3E9F051
:101BA40090000A121405FF9002D4E0C39FFF900234
:101BB40075E0FEEFD39E400AEFF09002D3E090026E
:101BC400D2F09002D3E004F080B29002D2E0A3F00D
:101BD400E075F00BA4247AF9740235F0FA9002EF60
:101BE4007401F0A3EAF0A3E9F09002EFE0FBA3E0B4
:101BF400FAA3E0F8AC02AD039002E9E0FBA3E0FA3B
:101C0400A3E0F97E007F041213C69002EFE0FBA369
:101C1400E0FAA3E02404F9E43AA801FCAD0390023D
:101C2400ECE0FBA3E0FAA3E0F97E007F061213C602
:101C34009002D4E0FF9002EFE0FBA3E0FAA3E0F906
:071C440090000AEF1214AE3C
:011C4B002276
:101DC200C3900274E0942A900273E094005005E4F8
:101DD200F0A3F022E4900273F0A3F09001BDE0FEC4
:101DE200A3E0FFEE6003021F21EF24FE7003021E38
:101DF200E2046003021F21900019E0FEA3E0FF90BD
:101E020001CFE06E7003A3E06F6003021F21900018
:101E12001BE0FEA3E0FF9001D1E06E7003A3E06F30
:101E22006003021F217B019002EC04F0A37401F015
:101E3200A374BFF07A0179C5121A799001BDE4F05A
:101E4200A37402F078C97C017D017B017A0179BF1C
:101E52007E007F061213C678BF7C017D017B017A6A
:101E62000079207E007F061213C678AF7C017D01C7
:101E72007B017A0079207E007F061213C678A97C46
:101E8200017D017B017A0179C97E007F061213C6AA
:101E92009001C5E0FFA3E09001CFCFF0A3EFF09057
:101EA20001C7E0FFA3E09001D1CFF0A3EFF09000D3
:101EB20019E0FFA3E09001C5CFF0A3EFF090001B63
:101EC200E0FFA3E09001C7CFF0A3EFF09001B5745B
:101ED20008F0A37406F0900273E4F0A3742AF022CF
:101EE200900019E0FEA3E0FF9001CFE0B50630A319
:101EF200E0B5072B90001BE0FEA3E0FF9001D1E0CC
:101F0200B5061CA3E0B507179002EC7401F0A374A8
:101F120001F0A374BFF07B017A0179C5121A79220C
:10162100900276E0FEA3E0FF9001C7E0B50628A393
:10163100E0B50723900278E0FEA3E0FF9001C9E046
:10164100B50614A3E0B5070F78A97C017D017B01E4
:101651007A0279D902182690002FE0FEA3E0FF90CC
:101661000019E05EFEA3E05FFF90002FE0FCA3E025
:10167100FD9001C7E05CFCA3E05DB50732ECB50667
:101681002E900031E0FEA3E0FF90001BE05EFEA380
:10169100E05FFF900031E0FCA3E0FD9001C9E0FABA
:1016A100A3E0FBEA5CFCEB5D6F7002EC6E602090E6
:1016B1000029E0FFA3E09002D5CFF0A3EFF0900066
:1016C1002BE0FFA3E09002D7CFF0A3EFF0801590BD
:1016D10001C7E0FFA3E09002D5CFF0A3EFF0A3EAAA
:1016E100F0A3EBF0E49002D3F09002D3E0FFC394B7
:1016F100085051EF75F00BA4247AF9740235F0FA11
:101701007B019002E9EBF0A3EAF0A3E9F012150ED8
:10171100FF9002D5E0B5F024A3E0B5071F9002E9E0
:10172100E0FBA3E0FAA3E0F9900002121539FF9063
:1017310002D7E065F07003A3E06F60089002D3E088
:1017410004F080A59002D3E064086003021810FE43
:101751007F067DFF7B017A0179A91215F57E007F55
:10176100067D007B017A0179C91215F578AF7C01FC
:101771007D017B017A0079207E007F061213C678F5
:10178100BF7C017D017B017A0079207E007F0612FA
:1017910013C69002D5E0FFA3E09001CFCFF0A3EFF5
:1017A100F09002D7E0FFA3E09001D1CFF0A3EFF0DA
:1017B100900019E0FFA3E09001C5CFF0A3EFF090F6
:1017C100001BE0FFA3E09001C7CFF0A3EFF0900171
:1017D100BDE4F0A304F09001B7E4F0A304F0A37416
:1017E10008F0A3E4F0A37406F0A37404F09001B52B
:1017F1007408F0A37406F090001D7401F0A3740145
:10180100F0A374DFF0900273E4F0A3742AF0229045
:1018110002E9E0FBA3E0FAA3E02404F9E43AFA7850
:10182100A97C017D017E007F061213C678AF7C0181
:101831007D017B017A0079207E007F061213C6901C
:1018410001B57408F0A3E4F0900274E0240EF09066
:061851000273E03400F018
:01185700226E
:1026A600440019C0A81E8B440029C0A81E0144007E
:1026B6002FFFFFFF00440046FFFFFFFF44003300EB
:0C26C6000000004600204534567890AB20
:092ACF0090002DEEF0A3EFF022BF
:102399009002EEECF0A3EDF09000031214052D90DD
:1023A900003EF0900002121405FD9002EEE02D901F
:1023B900003DF090000112140590003CF01213EC5E
:1023C90090003BF09002EEE0FCA3E0FDECFF9000F2
:1023D9003DE0C39FE49400500F90003CE004F0E01E
:1023E900700690003BE004F0AF0590003EE0C39F0B
:1023F900E49400501890003DE004F0E0700F900064
:0E2409003CE004F0E0700690003BE004F0229E
:10206D009002F0EEF0A3EFF0A3EBF0A3EAF0A3E9FA
:01207D00F072
:10207E009002F9EBF0A3EAF0A3E9F09002F2E0FB94
:10208E00A3E0FAA3E0F9A3E0FEA3E0FFE92FF9EA4B
:10209E003EFAE924FFF9EA34FFFA9002FCEBF0A3D2
:1020AE00EAF0A3E9F09002FCE0FBA3E0FAA3E0F96A
:1020BE00C003C002C0019002F9A3E0FAA3E0F9C385
:1020CE00D082D083D0E0E99582EA9583504E90027B
:1020DE00F9E0FB900001121405FD7C001213ECFEDA
:1020EE00E42DFFEC3EFE9002F7F0A3EFF09002F12C
:1020FE00E02FF09002F0E03EF0C3A3E09F9002F0DC
:10210E00E09E500CA3E004F070069002F0E004F0A4
:10211E009002FAE475F0021214E280899002FCE05B
:10212E00FBA3E0FAA3E0F9C003C002C0019002F9DC
:10213E00E0FBA3E0FAA3E0F9D082D083D0E06B708D
:10214E0008E965827003EA6583703B9002F9E0FB53
:10215E00A3E0FAA3E0F91213EC7F00FE9002F7F071
:10216E00A3EFF09002F1E02FF09002F0E03EF0C30A
:10217E00A3E09F9002F0E09E500CA3E004F07006E6
:0E218E009002F0E004F09002F0E0FEA3E0FF0B
:01219C002220
:102A4500AF059002F5ECF0A3EFF0E4FFFE12206D68
:042A5500122AE0223F
:102970007B017A0179B79002F5E4F0A37414F0E4D6
:10298000FFFE12206DEF4E70067EFF7FFF80031268
:022990002AE03B
:012992002222
:02248C00AD079A
:10248E009001B9E0FEA3E07A002400FFEA3ECF24DB
:10249E00ECCF34FF9002EEF0A3EFF0E02DFF9002B0
:1024AE00EEE03400FE7B017A0179C39002F5E4F090
:1024BE00A37408F012206D7B017A0179CB9002EEA5
:1024CE00E0FDA3E09002F5CDF0A3EDF012206DEF4C
:0C24DE004E70067EFF7FFF8003122AE094
:0124EA0022CF
:062AE1007F0612248C2286
:10254900E490017AF090017AE0FFC3940A5018EF01
:1025590025E02402F582E43400F583E4F0A3F09049
:10256900017AE004F080DEE490017AF090017AE0EB
:10257900FFC3940A501975F01EEFA42464F582E58F
:10258900F03400F583E4F090017AE004F080DD9006
:0925990000007404F0A3E4F02238
:101858009002ECEBF0A3EAF0A3E9F0A3ECF0A3ED1F
:01186800F08F
:10186900900001E004F07006900000E004F0C390DD
:101879000000E0947D40067410F0A3E4F0E49001C8
:101889007AF090017AE0FFC3940A5046EF75F01E92
:10189900A4244BF9740035F0FA7B019002F1EBF0C6
:1018A900A3EAF0A3E9F0900019121405601C122AAA
:1018B900D89002F1E0FBA3E0FAA3E0F9900004124A
:1018C90015396F7003EE65F0609690017AE004F0C7
:1018D90080B09002F1E4F0A3F0A3F090017AF090C7
:1018E900017AE0FFC3940A400302197BEF75F01EE9
:1018F900A4244BF9740035F0FA7B019002F4EBF063
:10190900A3EAF0A3E9F0900019121405FF701790EB
:1019190002F4E0F9A3E0FAA3E09002F1C9F0A3EA26
:10192900F0A3E9F0804CEFB4073F9002F1E0FBA38C
:10193900E0FAA3E0F94A601C90001A121405FF901E
:1019490002F4E0FBA3E0FAA3E0F990001A121405EF
:10195900D39F40159002F4E0F9A3E0FAA3E09002C6
:10196900F1C9F0A3EAF0A3E9F090017AE004F002EA
:1019790018E89002F1A3E0FAA3E04A7004FBFAF92F
:10198900229002F1E0FBA3E0FAA3E0F990001974B8
:10199900021214AE900042E090000C1214AE9000B6
:1019A90043E090000D1214AE900044E090000E1236
:1019B90014AE900045E090000F1214AE900012E4AE
:1019C90075F0921215C8900014E475F0921215C8BA
:1019D900900010E475F0011215C890001BE4121470
:1019E900AE90001A74011214AE9000187403121408
:1019F900AE900016E41214AE90001774101214AED3
:101A0900122AD89002F1E0FBA3E0FAA3E0F99000D2
:101A190004EE8FF01215C89002EFE0FFA3E09000EA
:101A290006CF8FF01215C89002ECE0FBA3E0FAA3F1
:101A3900E0F912150EFF9002F1E0FBA3E0FAA3E032
:101A4900F9E5F08FF01215A99002ECE0FBA3E0FA9A
:101A5900A3E0F9900002121539FF9002F1E0FBA30F
:0F1A6900E0FAA3E0F9900002E5F08FF01215C843
:011A7800224B
:10271600E490017AF090017AE0FDC3940A5033ED1B
:1027260025E02402F582E43400F583E0FCA3E0B55D
:102736000718ECB5061490017AE025E02402F5822C
:10274600E43400F583E4F0A3F02290017AE004F08B
:0327560080C3221B
:10281F00E490017AF090017AE0FDC3940A5030ED14
:10282F0025E02402F582E43400F583E0FCA3E04CBC
:10283F00701590017AE025E02402F582E43400F56A
:10284F0083EEF0A3EFF02290017AE004F080C6222D
:0725A2001214AE7F017E0060
:1025A900900177E0FBA3E0FAA3E02408F9E43AFA02
:1025B900AD07AC0612239990003BE0FF900177E04C
:1025C900FBA3E0FAA3E0F9900008EF1214AE900023
:1025D9003CE09000091214AE90003DE090000A1210
:0C25E90014AE90003EE090000B0214AE17
:050003009002E9EFF09E
:10000800900177E0F9A3E0FAA3E09002EAC9F0A32F
:10001800EAF0A3E9F07B017A0179DF90001DEBF0AB
:10002800A3EAF0A3E9F0900016EBF0A3EAF0A3E945
:10003800F0BF032A9002EAE0FBA3E0FAA3E0F990FC
:100048000019121405540F640360030212EA9000A9
:100058001012153945F060030212EA0201DC900221
:10006800E9E0640260030201E4900045E004F070F6
:1000780016900044E004F0700E900043E004F07025
:1000880006900042E004F0E4900273F0A3F09001BF
:100098007BF0A3F09002EAE0FBA3E0FAA3E0F9907A
:1000A8000019121405FF64076004EFB405269000D8
:1000B8001A740112146990001A1214056478600306
:1000C8000212EA9002EAE0FBA3E0FAA3E0F990004A
:1000D8001902115D9002EAE0FBA3E0FAA3E0F990AF
:1000E800001912140570030212EA90001012153953
:1000F80045F070030201C290001A74FF12143260B6
:10010800030212EA90001B121405FF6408601390A2
:100118000019121405FE64026004EEB40117EFB46E
:100128000513900019E41214AE90003F7480F01289
:100138002A59020EE19002EAE0FBA3E0FAA3E0F9F3
:1001480090001B121405FFD3940440067E047F041C
:1001580080007403A807088002C333D8FC90001AF3
:100168001214AE90001B74011214699001A4E004EB
:10017800F070069001A3E004F090001912140554E1
:100188000F1470030208B424FE6023147003020DD8
:10019800A124FE7003020DA124FE7003020DA12408
:1001A8000660030212EAE49001D8F00208BA90004F
:1001B8003F7404F0122A59020FB99002EAE0FBA337
:1001C800E0FAA3E0F9900019121405540F640360D3
:1001D800030212EA90003F7408020EBC900180E00E
:1001E80004F0700690017FE004F09001B7E06445E8
:1001F800601F90017EE004F0700690017DE004F03D
:10020800900184E004F07063900183E004F002122E
:10021800EA9001B9E0FEA3E07C002400FFEC3EFE7A
:10022800C3900274E09F900273E09E50030212EAAA
:100238009001B9E0FEA3E02400FFEC3E900273F0C9
:10024800A3EFF09001BDE0543F7004A3E0601F905D
:10025800017EE004F0700690017DE004F090018AD0
:10026800E004F07006900189E004F00212EA9000C0
:1002780033E0FEA3E0FF900019E0FCA3E0FDB50722
:1002880018ECB50614900035E0FEA3E0FF90001BC3
:10029800E06E7003A3E06F60319001C7E0B5041908
:1002A800A3E0B5051490001BE0FEA3E0FF9001C990
:1002B800E06E7003A3E06F601190017EE004F070BF
:1002C8000690017DE004F00212EA122970EFF47042
:1002D80002EEF4601F90017EE004F0700690017D4C
:1002E800E004F090018CE004F0700690018BE004CB
:1002F800F00212EA9001C0E0640670030203D8908D
:1003080001C0E06401601F90017EE004F070069077
:10031800017DE004F090018EE004F0700690018DFC
:10032800E004F00212EA900192E004F070069001F5
:1003380091E004F09001CBE06408601F900190E028
:1003480004F0700690018FE004F0900196E004F04C
:100358007006900195E004F00212EAE49001CBF0F7
:10036800C39001CEE094FF9001CDE094F74006A33E
:10037800E0240180069001CEE02400F09001CDE059
:100388003408F09001C3E0FFA3E09001C7CFF0A3C9
:10039800EFF09001C5E0FFA3E09001C9CFF0A3EF13
:1003A800F0900019E0FFA3E09001C3CFF0A3EFF0B5
:1003B80090001BE0FFA3E09001C5CFF0A3EFF09001
:1003C8000194E004F07006900193E004F00212D961
:1003D80090019AE004F07006900199E004F0122A66
:1003E800E1EFF47002EEF4601F900198E004F07001
:1003F80006900197E004F090019EE004F0700690EA
:10040800019DE004F00212EA9002EA7401F0A3747C
:1004180000F0A3744BF09002EAA3E0FAA3E0D390B3
:1004280001599582EA9583506B9002EAE0FBA3A3F9
:10043800E0F9900019121405604E90000412153965
:10044800FF9001CDE065F07003A3E06F703A900073
:1004580006121539FF9001CBE0B5F02CA3E0B507E3
:100468002712150EFF9001C3E0B5F01CA3E0B507F5
:1004780017900002121539FF9001C5E065F070036E
:10048800A3E06F70030208E49002EBE475F01E121B
:1004980014E280829001D8E0543F640270549001C5
:1004A800CDE0FFA3E0900039CFF0A3EFF0E4900196
:1004B8007AF090017AE0FFC3940A5028EF25E024EF
:1004C80002F582E43400F583E0FEA3E0FF900039F2
:1004D800E06E7003A3E06F700302060190017AE0FA
:1004E80004F080CE9001A8E004F070069001A7E027
:1004F80004F09001D8E030E2030212EA9001A2E091
:1005080004F070069001A1E004F09001D87414F092
:10051800900273E4F0A37428F09001D77450F0901F
:1005280001D2E0FF90017AF09001D6E09001D2F07C
:100538009001D6EFF09001D1E0FF90017AF09001A0
:10054800D5E09001D1F09001D5EFF09001D0E0FF17
:1005580090017AF09001D4E09001D0F09001D4EFAE
:10056800F09001CFE0FF90017AF09001D3E0900184
:10057800CFF09001D3EFF09001D6E004F070169020
:1005880001D5E004F0700E9001D4E004F0700690FC
:1005980001D3E004F09001CBE0FEA3E0FF90003926
:1005A800EEF0A3EFF09001CDE0FDA3E09001CBCDFC
:1005B800F0A3EDF0A3EEF0A3EFF09001C3E0FFA3EA
:1005C800E09001C7CFF0A3EFF09001C5E0FFA3E0F2
:1005D8009001C9CFF0A3EFF0900019E0FFA3E090DD
:1005E80001C3CFF0A3EFF090001BE0FFA3E0900160
:1005F800C5CFF0A3EFF00212529002EAE4F0A3F0A4
:10060800A3F090017AF090017AE0FFC3940A4003C6
:100618000206B175F01EEFA42464F582E5F03400FB
:10062800F583E0701E90017AE075F01EA4244BF962
:10063800740035F0FA9002EA7401F0A3EAF0A3E935
:10064800F0806690017AE0FF75F01EA42464F582BC
:10065800E5F03400F583E0640770459002EAE0FBBA
:10066800A3E0FAA3E0F94A601B90001A121405FEF1
:1006780075F01EEFA42465F582E5F03400F583E0FB
:10068800D39E401C90017AE075F01EA4244BF974A7
:100698000035F0FA9002EA7401F0A3EAF0A3E9F059
:1006A80090017AE004F002060E9002EAA3E0FAA3B1
:1006B800E04A70119001A6E004F070069001A5E0F0
:1006C80004F00212EA9002EAE0F9A3E0FAA3E0904B
:1006D8000177C9F0A3EAF0A3E9F09002EAE0FBA3EE
:1006E800A3E0F990001A74031214AE900018740372
:1006F8001214AE900016E41214AE9000177404128F
:1007080014AE90001BE41214AE9001CDE0FFA3E0FC
:10071800900004CF8FF01215C89001CBE0FFA3E042
:10072800900006CF8FF01215C89001C3E0FFA3E038
:10073800CF8FF01215A99001C5E0FEA3E0FF90024B
:10074800EAE0FBA3E0FAA3E0F9900002EE8FF012D2
:1007580015C890001974011214AE900042E0900080
:100768000C1214AE900043E090000D1214AE9000ED
:1007780044E090000E1214AE900045E090000F1275
:1007880014AE900010E475F0011215C89001D2E083
:1007980090000B1214AE9001D1E090000A1214AE32
:1007A8009001D0E09000091214AE9001CFE09000C3
:1007B800081225A29001D7E054F0D39450500302B8
:1007C80008B4E490017AF09001D7E0C4540F24FBF8
:1007D800FFE434FFFEEF7802C333CE33CED8F9FFFF
:1007E80090017AE0FDC39FEE6480F874809840031E
:1007F8000208B474DF2DF582E43401F583E090003B
:100808004AF070030208B490004AE0FFB40108906F
:10081800017AE004F080B0EF6402706A90017AE037
:10082800FD24E0F582E43401F583E0640470577434
:10083800E12DF582E43401F583E0FE74E22DF582C2
:10084800E43401F583E0FDEDFF900039EEF0A3EF0D
:10085800F0D39492EE940040067E007F9280089038
:100868000039E0FEA3E0FF9002EAE0FBA3E0FAA370
:10087800E0F9900012EE8FF01215C8900014EE8F78
:10088800F01215C8802690017AE0FF24E0F582E492
:100898003401F583E0601574E02FF582E43401F546
:1008A80083E0FF90017AE02FF00207CF9001D8741F
:1008B80010F09001D8E04402F09001DF7402F0A338
:1008C8007404F0E4A3F0A37492F0900273E4F0A32C
:1008D800742CF09001D77460F00211799002EAE06C
:1008E800F9A3E0FAA3E0900177C9F0A3EAF0A3E93D
:1008F800F0E490003FF09001D8E030E2189002EA6E
:10090800E0FBA3A3E0F9900019E41214AE90003FB5
:10091800742002104C9001D7E0C4540F25E025E064
:10092800FF90017AF0C3900274E09FFF900273E099
:100938009400CF24ECCF34FFF0A3EFF09002EAE06C
:10094800FBA3E0FAA3E0F9900019121405540FFF75
:10095800BF020A9001D8E0543F6412605BD3900252
:1009680074E09400900273E0940050089001D8E07D
:1009780054036044900008121405FF9001CFE06F03
:100988006003021164900009121405FF9001D0E081
:100998006F600302116490000A121405FF9001D1E0
:1009A800E06F600302116490000B121405FF9001C0
:1009B800D2E06F60030211649001D8E020E40302E2
:1009C8000B09900010121539FDACF04C7003020BA6
:1009D80009E9240CF9E43AFA12239990003BE0FF64
:1009E8009001D3E06F6003020B0990003CE0FF9098
:1009F80001D4E06F6003020B0990003DE0FF900115
:100A0800D5E06F6003020B0990003EE0FE9001D62E
:100A1800E06E6003020B0990003BE0FD9002EAE003
:100A2800FBA3E0FAA3E0F990000CED1214AE9000DD
:100A38003CE090000D1214AE90000EEF1214AE9030
:100A4800000FEE1214AE90001B1214056003020A88
:010A5800E3BA
:100A59009002EAE0FBA3E0FAA3E0F990001A12146D
:100A690005FF900018121405C39FFF9002EDF09046
:100A79000016121405131313541FFEC3EF9E9002A0
:100A8900EDF0E0FF900016121469C3EF64809480C2
:100A99005007EFF4049002EDF09002EDE0FF9002B0
:100AA900EAE0FBA3E0FAA3E0F9900017121405139A
:100AB90013543FFEC3EF9E9002EDF09000171214FD
:100AC90069900016121405131313541FFF90001791
:0A0AD9001214052F9000181214AE3D
:100AE30090003F7401F09002EAE0FBA3E0FAA3E078
:100AF300F990001812140590001A1214AE90001009
:100B0300E4F5F01215C89002EAE0FBA3E0FAA3E0D3
:100B1300F9900019121405540F14B408004003028D
:100B230012EA900B3375F003A4C58325F0C58373D4
:100B3300020B4B020B93020D240210530210E70227
:100B4300113D02116402102B90003FE020E00302EC
:100B530012EA90001974031214AE90003F7440F02F
:100B6300900010E4F5F01215C8900273E0FCA3E0C6
:100B7300FDD39400EC9400400E90003FE04402F05B
:100B8300AF05AE041225A9E490017BF0A3020EBCCD
:100B930090003FE020E003020D069001D8E0543FAF
:100BA30064126003020D069001D7E054F0D3945011
:100BB3005003020CA2E490017AF09001D7E0C454F0
:100BC3000F24FBFFE434FFFEEF7802C333CE33CEB2
:100BD300D8F9FF90017AE0FDC39FEE6480F874803A
:100BE300984003020CA274DF2DF582E43401F583EF
:100BF300E090004AF07003020CA290004AE0FFB4B8
:100C0300010890017AE004F080B0EF6402706A900A
:100C1300017AE0FD24E0F582E43401F583E0640425
:100C2300705774E12DF582E43401F583E0FE74E23C
:100C33002DF582E43401F583E0FDEDFF900039EEFC
:100C4300F0A3EFF0D39492EE940040067E007F92DF
:100C53008008900039E0FEA3E0FF9002EAE0FBA3E6
:100C6300E0FAA3E0F9900012EE8FF01215C890009D
:100C730014EE8FF01215C8802690017AE0FF24E06D
:100C8300F582E43401F583E0601574E02FF582E426
:100C93003401F583E0FF90017AE02FF0020BBD9061
:100CA30002EAE0FBA3E0FAA3E0F99000197403124F
:100CB30014AE9001CFE09000081214AE9001D0E082
:100CC3009000091214AE9001D1E090000A1214AE04
:100CD3009001D2E090000B1225A290003F7442F0E5
:100CE3009002EAE0FBA3E0FAA3E0F9900010E4F538
:100CF300F01215C8E4900273F0A3F090017BF0A307
:100D0300020EBC90003F7420F0122A59900177E044
:100D1300FBA3E0FAA3E0F9900019E41214AE020475
:100D2300FA9001D8E030E0799002EAE0FBA3E0FA20
:100D3300A3E0F990001912140520E4659000101245
:100D4300153945F060030212EA900274E02401FFB2
:100D5300900273E03400FE1225A990003FE0441096
:100D6300F0D3900274E09400900273E09400400783
:100D730090003FE04402F0122A599002EAE0FBA3FC
:100D8300E0FAA3E0F9900010E475F0011215C890A1
:100D9300001974081214AE90001BE41214AE020F73
:100DA300199001D8E030E5689001DDE0FEA3E0FD95
:100DB300EDFF900040EEF0A3EFF0900273E0FCA390
:100DC300E0FDC39FEC9E5008900040ECF0A3EDF0D3
:100DD300900040E0FEA3E0FF1225A9900040E0FE52
:100DE300A3E0FFC3900274E09FF0900273E09EF0D3
:100DF30090001DE0F9A3E0FAA3E0900026C9F0A358
:100E0300EAF0A3E9F090001EEE8FF01214E28007DF
:100E1300E4900040F0A3F0900273E0FCA3E0FDD364
:100E23009400EC940040229002EAE0FBA3E0FAA3D2
:100E3300E0F990001912140520E40E90003FE044FD
:100E430002F0AF05AE041225A99001D9E0FEA3E09C
:100E53007C002400FFEC3EFE900039F0A3EFF090FD
:100E630002EAE0FBA3E0FAA3E0F9900014121539BB
:100E7300FDACF0D3EF9DEE9C500A900039E0700278
:100E8300A3E07008900039ECF0A3EDF0900039E096
:100E9300FEA3E0FF9002EAE0FBA3E0FAA3E0F990EF
:100EA3000012EE8FF01215C890003FE05403700358
:100EB3000212EAE490017BF0A3F0122A5990003F5A
:100EC300E0FF30E522E490017BF0A3F09002EAE03A
:100ED300FBA3E0FAA3E0F9900019E41214AE900129
:100EE300D87414F002116AEF30E434E490017BF01B
:100EF300A3F09002EAE0FBA3E0FAA3E0F99000106C
:100F0300E475F0011215C890001974041214AE9020
:100F1300001BE41214AE9001D87411F002116A9010
:100F2300017BE0FEA3E0FFD39400EE9400407590B4
:100F3300003FE030E0149002EAE0FBA3E0FAA3E014
:100F4300F9900010E4F5F01215C89002EAE0FBA353
:100F5300E0FAA3E0F990001012153945F0702A90D9
:100F63000012121539FDACF0D3EF9DEE9C400890B2
:100F7300017BECF0A3EDF090017BE0FFA3E0900098
:100F830010CF8FF01215C8801B9002EAE0FBA3E09C
:100F9300FAA3E0F9900010121539FF90017BE5F0F8
:100FA300F0A3EFF09002EAE0FBA3E0FAA3E0F990EC
:100FB300001BE41214AE900016E0F9A3E0FAA3E0DC
:100FC30090001DC9F0A3EAF0A3E9F0D390017CE0FF
:100FD300940090017BE0940040329002EAE0FBA38E
:100FE300E0FAA3E0F9900010121539FFAEF0D394A4
:100FF30000EE94004016EF2428FFE43E900273F0C5
:10100300A3EFF09001D87418F002117390003FE041
:1010130020E1030212EA900273E4F0A37428F09033
:1010230001D87410F002117390003FE020E0030236
:1010330012EA9002EAE0FBA3E0FAA3E0F9900019B8
:10104300E41214AE90003F7410F0122A590212EA0F
:10105300900273E0FEA3E0FFD39400EE94004003FC
:101063001225A99001D8E030E03F90003FE09002C4
:10107300EA30E023E0FBA3E0FAA3E0F9900019745F
:10108300071214AE90001AE41214AE900010E4F5A7
:10109300F01215C802111BE0FBA3E0FAA3E0F990DC
:1010A300001974061214AE806F90003FE030E01F09
:1010B3009002EAE0FBA3E0FAA3E0F99000197405BB
:1010C3001214AE900010E4F5F01215C80212EAD320
:1010D300900274E09400900273E0940050030212B3
:1010E300EA021164900273E0FEA3E0FFD39400EEE2
:1010F300940040031225A99001D8E030E028900223
:10110300EAE0FBA3E0FAA3E0F990001974071214D4
:10111300AE90001AE41214AE1225A590003F74108D
:10112300F0122A59803BD3900274E094009002732A
:10113300E0940050030212EA802790003FE020E091
:10114300030212EA9002EAE0FBA3E0FAA3E0F990BB
:10115300001974071214AE90001AE41214AE0212AE
:10116300EA9001D87410F0900273E4F0A37428F0AD
:101173009001D77450F09002EAE0FBA3E0FAA3E0F9
:10118300F99000081214059001D3F090000912148D
:10119300059001D4F090000A1214059001D5F09047
:1011A300000B1214059001D6F090000C1214059058
:1011B30001CFF090000D1214059001D0F090000EB5
:1011C3001214059001D1F090000F1214059001D272
:1011D300F09001C07406F0900004121539FF9001DD
:1011E300CBE5F0F0A3EFF0900006121539FF900164
:1011F300CDE5F0F0A3EFF0900019E0FFA3E090013C
:10120300C3CFF0A3EFF090001BE0FFA3E09001C574
:10121300CFF0A3EFF012150EFF9001C7E5F0F0A396
:10122300EFF0900002121539FF9001C9E5F0F0A329
:10123300EFF090001912140530E40BE49001DAF09A
:101243009001D9F08009E49001D9F0A37492F09051
:1012530001BF7440F0900273E0FCA3E0FDEC900149
:10126300B9F0EDA3F0E49001DEF09001DDF0900120
:10127300DBF0A3F0122AE1EFF4FFEEF49001DBF0D0
:10128300A3EFF09001B77445F0E4A3F09001BEF032
:101293009001BDF090002EE004F0700690002DE068
:1012A30004F090002DE0FCA3E0FDEC9001BBF0ED19
:1012B300A3F0E49001C1F0A3F0122970EFF4FFEE64
:1012C300F49001C1F0A3EFF090019CE004F07006EC
:1012D30090019BE004F0900182E004F0700690011D
:1012E30081E004F0E48007E4900273F0A3F090003F
:0212F3003FF0CA
:0112F50022D6
:082AD800900000E0FEA3E0FF06
:012AE00022D3
:102417009002EEEBF0A3EAF0A3E9F0D3ED9400EC21
:1024270064809480405EAF0590017BECF0A3EFF0F1
:10243700900016E0FBA3E0FAA3E0F9C003C002C0D6
:10244700019002EEE0FBA3E0FAA3E0F9D082D0838B
:10245700D0E06B7008E965827003EA6583602590B8
:10246700017BE0FEA3E0FF900016E0FBA3E0FAA3E8
:10247700E0F8AC02AD039002EEE0FBA3E0FAA3E0C4
:05248700F91213C6224A
:0B2ABB00EF1FAC0670011E4C70F622ED
:10299300EF1FAC0670011E4C6017780B76000876AB
:1029A30064780B08E6161886047001164C60E18003
:0129B300F033
:0129B4002200
:09292500E4F0A3EFF0E4FD7F3AB9
:05292E009002F7EDF03E
:10293300C2A0541F4FFF122A2B12294C9002F7E01A
:0829430030E70312294CD2A079
:01294B002269
:102A11009002F9EBF0C2A0ED541F4FFF122A2B9048
:0A2A210002F9E0FF122A2BD2A022D6
:1028CA009002F8EFF05460780A6660247B037D1F5B
:1028DA007FA0122A119002F8E05460C4135407FB37
:1028EA007D1F7F80122A119002F8E05460780AF660
:0128FA0022BB
:102A6D009002F6EFF01228CA9002F6E0FDE4FF1294
:032A7D00292E22DD
:0329F400A3E0FD60
:1029F7009002F7EDF09002F6EFF01228CA9002F677
:0A2A0700E0FDA3E0FB7F40022A116E
:10275900AD077FD41229F77D017FD21229F77FEACD
:10276900122A6DEF20E0F77D017FD21229F77FD879
:10277900122A6D90030CE4F0A3EFF07FD9122A6DB1
:1027890090030CE0FEA3E04FFF90030CEEF0FEA3D4
:02279900EFF05F
:01279B00221B
:102896009002E9ECF0A3EDF0AD077FD41229F79092
:1028A60002E97FD61229F49002E9E0FD7FD71229CA
:1028B600F77FEA122A6DEF30E0097F0F7E00122AB9
:0428C600BB80EE22C3
:10279C009002F6EEF0A3EFF0A3EBF0A3EAF0A3E9BE
:1027AC00F0C2A07F3A122A2B9002F674FFF5F012B9
:1027BC0014F845F0601912294C9002F8E0FBA3E4E0
:1027CC0075F0011214F8A9F0FAEF12149C80D9D20A
:0227DC00A02239
:1027DE009002EEEEF0A3EFF0A3EBF0A3EAF0A3E984
:1027EE00F0C2A07F7A80229002EE74FFF5F01214F0
:1027FE00F845F060199002F0E0FBA3E475F00112C9
:10280E0014F8A9F0FA1213ECFF122A2B80D9D2A0D9
:01281E002297
:10226E009002E9EEF0A3EFF0A3EBF0A3EAF0A3E9FE
:10227E00F07D247F021229F77D1A7F031229F79031
:10228E0002E9A3E02424FD7F061229F79002EAE07A
:10229E0024249002E9E0341AFD7F071229F7E4FBAB
:1022AE00FD7F7A122A11D3900274E0943690027355
:1022BE00E09400500B9002E9E0FEA3E0FFA3802B18
:1022CE009002EAE024CAF09002E9E034FFF09002B6
:1022DE00EBE0FBA3E0FAA3E0F97F367E001227DEE7
:1022EE009002E9E0FEA3E0FF90001DE0FBA3E0FA00
:0F22FE00A3E0F91227DE7B087D1F7F80022A11E3
:101F22009002E9EEF0A3EFF0A3EBF0A3EAF0A3E94D
:011F3200F0BE
:101F33007F1C122A6DEF20E60B7F39122A6DEF709A
:101F430003FEFF227809E6FDE4FF1229F77808E68D
:101F5300FD7F011229F712292A7808760008A607BF
:101F630012292AEF780846F608E6F612292A900283
:101F7300F0122925EFFE9002F0E04EF0A3E01229C3
:101F8300299002EE122925EFFE9002EEE04EF0A317
:101F9300E0F09002E9E0FEA3E0FF9002F0E0FCA392
:101FA300E0FDC39FEC9E5006AE04AF058000900297
:101FB300F0EEF0A3EFF09002EBE0FBA3E0FAA3E076
:101FC300F912279C7F09122A6D9002F2E4F0A3EF25
:101FD300F0E0F8E4F0E89002F2F07F08122A6D9046
:101FE30002F2E0F0A3E04FF07F0B122A6D9002F4AF
:101FF300E4F0A3EFF0E0F8E4F0E89002F4F07F0AF5
:10200300122A6D9002F4E0F0A3E04FF07809E62481
:10201300FFFF18E634FFFED39002F3E09F9002F235
:10202300E09E500DC39002F5E09F9002F4E09E50B5
:102033000E9002F47F0C1229F49002F4E0801378DE
:1020430009E614FD7F0C1229F77809E624FF18E648
:1020530034FFFD7F0D1229F77B407D1E7F80122AFE
:09206300119002F0E0FEA3E0FF81
:01206C002251
:10219D007BFFE4FD7FFF122A117F057E001229933C
:1021AD00E47808F608F6FD7F081229F7E4FD7F09AB
:1021BD001229F7E4FD7F0C1229F7E4FD7F0D12299A
:1021CD00F77D237F0A1229F77D1A7F0B1229F77DE0
:1021DD00247F041229F77D1A7F051229F77D0D7FC3
:1021ED00C01229F7E4FD7FC11229F77B327DC27F32
:1021FD0080122A117D127FC61229F77D0C7FC7121E
:10220D0029F77D127FC41229F77DEE7FCA1229F7B7
:10221D007D057FCB1229F77D457FE41229F77D34AB
:10222D007FE51229F77D567FE21229F77D787FE34E
:10223D001229F77D907FE01229F77DAB7FE11229FE
:10224D00F77D007C017F101228967F1F1228CA7B14
:10225D00C07D1B7F80122A117B047D1F7F80022A87
:01226D00115F
:032AE70002219D2C
:0E2A9F007B017A0179A97FC87E00121F2222D6
:102A8000900273E0FEA3E0FF7B017A0179A90222A4
:012A90006ED7
:102A2B00E4780BF6C2A3EF3392A1D2A3EF25E0FF1C
:092A3B00780B06E6B408EDC2A315
:012A4400226F
:10294C00C2A3E4780CF618F6D2A3780CE625E0FFC7
:10295C00F6A2A2E4334FF6C2A31806E6B408E9784F
:03296C000CE6FF77
:01296F002245
:1025F500474554202F7569705F7365727665722F34
:102605007075745F646174612E7068703F6D6F647E
:102615003D707574646174612676616C75653D32D3
:10262500332E3536393520485454502F312E300D40
:0E2635000A0D0A003132333435363738390099
:1029B500E4FDFCC3ED9FEC9E5015E4FBFA0BBB0058
:0F29C500010ABA04F8BB52F50DBD00010C80E405
:0129D40022E0
:0E2AAD00C2807F0A7E001229B5D2800229B5B0
:012AEA0022C9
:102643007B017A03790574C075F0A81215A990006F
:1026530002741E75F0811215C87D907C1F121858E4
:102663009002E9EBF0A3EAF0A3E9F09002E9E0FBC2
:10267300A3E0FAA3E04A4B600F122AAD7FF47E0178
:082683001229B5122AADD28024
:01268B00222C
:102A59007BFF7A2579F57D437C001224177F647EFC
:042A6900000229B589
:0300000002230DCB
:0C230D00787FE4F6D8FD75810C022354A3
:1012F600E709F608DFFA8046E709F208DFFA803EDA
:1013060088828C83E709F0A3DFFA8032E309F608C6
:10131600DFFA8078E309F208DFFA807088828C832E
:10132600E309F0A3DFFA806489828A83E0A3F608E2
:10133600DFFA805889828A83E0A3F208DFFA804CBC
:1013460080D280FA80C680D4806980F28033801093
:1013560080A680EA809A80A880DA80E280CA8033FC
:1013660089828A83ECFAE493A3C8C582C8CCC58374
:10137600CCF0A3C8C582C8CCC583CCDFE9DEE78044
:101386000D89828A83E493A3F608DFF9ECFAA9F0C3
:10139600EDFB2289828A83ECFAE0A3C8C582C8CC19
:1013A600C583CCF0A3C8C582C8CCC583CCDFEADE32
:1013B600E880DB89828A83E493A3F208DFF980CC94
:1013C60088F0EF60010E4E60C388F0ED2402B4048D
:1013D6000050B9F582EB2402B4040050AF23234534
:0613E60082239013467300
:1013EC00BB010689828A83E0225002E722BBFE02FF
:0913FC00E32289828A83E4932232
:10140500BB010CE58229F582E5833AF583E022509C
:1014150006E92582F8E622BBFE06E92582F8E222E6
:0D142500E58229F582E5833AF583E4932200
:10143200BB0111F8E58229F582E5833AF583E0C81C
:1014420028F0E8225009C58229F8C58226C622BBA7
:10145200FE0DC58229F8E2C5822582F2E58222EAE2
:071462002583F583E99322C5
:10146900BB010FF8E58229F582E5833AF583E02887
:10147900F0225009C58229F8E58226F622BBFE0929
:10148900C58229F8E22582F222F8EA2583F583E963
:0314990093282273
:10149C00BB010689828A83F0225002F722BBFE012F
:0214AC00F32229
:1014AE00F8BB010DE58229F582E5833AF583E8F074
:1014BE00225006E92582C8F622BBFE05E92582C820
:0214CE00F22208
:1014D000EF8DF0A4A8F0CF8CF0A428CE8DF0A42E30
:0214E000FE22EA
:1014E200C5F0F8A3E028F0C5F0F8E5821582700295
:0614F2001583E038F02232
:1014F800A3F8E0C5F025F0F0E582158270021583A7
:06150800E0C838F0E82203
:10150E00BB010A89828A83E0F5F0A3E022500687A8
:10151E00F009E71922BBFE07E3F5F009E31922896A
:0B152E00828A83E493F5F0740193229D
:10153900BB0110E58229F582E5833AF583E0F5F0F0
:10154900A3E0225009E92582F886F008E622BBFECD
:101559000AE92582F8E2F5F008E222E5832AF58313
:08156900E993F5F0A3E99322D8
:10157100BB010789828A830214E2500B09C5F02757
:10158100F7C5F01937F722BBFE0D09F8E325F0F393
:10159100C5F019E338F322F889828A83740193250F
:0815A100F0C5F0F8E4933822D4
:1015A900BB010A89828A83F0E5F0A3F0225006F78D
:0F15B90009A7F01922BBFE06F3E5F009F319228A
:1015C800F8BB0111E58229F582E5833AF583E8F055
:1015D800E5F0A3F0225009E92582C8F608A6F02212
:0D15E800BBFE09E92582C8F2E5F008F222F9
:1015F500EF4E6012EF60010EEDBB010B89828A830D
:10160500F0A3DFFCDEFA2289F05007F709DFFCA919
:0C161500F022BBFEFCF309DFFCA9F02270
:10231900021C4CE493A3F8E493A34003F68001F272
:1023290008DFF48029E493A3F85407240CC8C333C5
:10233900C4540F4420C8834004F456800146F6DF94
:10234900E4800B010204081020408090268CE47E72
:10235900019360BCA3FF543F30E509541FFEE49389
:10236900A360010ECF54C025E060A840B8E493A350
:10237900FAE493A3F8E493A3C8C582C8CAC583CA7B
:10238900F0A3C8C582C8CAC583CADFE9DEE780BE33
:0126D2000007
:00000001FF
